:100000000C9446000C9465000C9465000C946500FB
:100010000C9465000C9465000C9465000C946500CC
:100020000C9465000C9465000C9465000C946500BC
:100030000C9465000C9465000C9465000C946500AC
:100040000C9465000C9465000C9465000C9465009C
:100050000C9465000C9465000C9465000C9465008C
:100060000C9465000C9465000C9465000C9465007C
:100070000C9465000C9465000C9465000C9465006C
:100080000C9465000C9465000C94650011241FBE4F
:10009000CFEFD0E1DEBFCDBF11E0A0E0B1E0E8E7F7
:1000A000F9E000E00BBF02C007900D92AA32B10741
:1000B000D9F711E0AAE2B1E001C01D92A233B10765
:1000C000E1F70E9414020C94BA040C940000CF9241
:1000D000DF92EF92FF920F931F93CF93DF931F92C4
:1000E000CDB7DEB7282F8B0186E090E029830E94F0
:1000F000D4026C01E0912C01F0912D018081D60198
:100100008C93918111969C93119715961C921E9237
:1001100014971396FC93EE931297D582C48229818B
:10012000223059F020F4213081F4915009C023305D
:1001300031F0243051F4815006C08F5F04C09F5FBE
:10014000F601918302C0D6018C93D0922D01C0920A
:100150002C01F6019081D8018C9198132DC09181CA
:1001600011968C91981328C080E1E82EF12C0E9402
:100170004804B7010E94AC02F80180830E94480441
:10018000B7010E94AC02982FD80111968C9380E0A1
:10019000C114D10471F0F6013081D8012C913213D1
:1001A00004C02181291301C081E0F601C280D380FF
:1001B000EFCF8111DCCF11C080912A0190912B01EA
:1001C000DC011496ED91FC911597F0932B01E093CF
:1001D0002A01138212820E946C03A0912C01B0911B
:1001E0002D019C9181E0903130F411962C91119762
:1001F000203108F480E01296ED91FC911397228152
:1002000033812115310561F04081941307C01196A7
:100210005C9111974181541301C081E0F901EFCF46
:100220000F90DF91CF911F910F91FF90EF90DF9092
:10023000CF9008958F929F92BF92CF92DF92EF92CC
:10024000FF920F931F93CF93DF93CDB7DEB7DA956D
:100250000FB6F894DEBF0FBECDBF9E012F5F3F4F9C
:1002600040E051E0D901FA011D923197E9F7E091A0
:100270002C01F0912D0141E0309779F05181A0815E
:1002800010E1A19FD0011124A50FB11DA20FB31F32
:100290004C930280F381E02DEFCFDB0111964C915E
:1002A0001197EC91B0E1EB9FF0011124E40FF11DE7
:1002B000E20FF31F41E04083B9014E01E1E08E0EF1
:1002C0009E1E01E010E0FC0140E050E020E030E044
:1002D000B12C7A01E60EF71E6701C20ED31ED601BD
:1002E000DC90DD2039F06801022E01C0CC0C0A94AC
:1002F000EAF7BC282F5F3F4F2830310569F7B192EC
:10030000485F5F4F4031510509F70296605F7F4FAC
:1003100068157905C1F6D3950FB6F894DEBF0FBE08
:10032000CDBFDF91CF911F910F91FF90EF90DF90A4
:10033000CF90BF909F908F9008951ABA1BBA92B336
:10034000987F92BB909A95E29A95F1F7C99982E0CD
:100350009098919A95E29A95F1F7C89981E0CA9997
:1003600083E09198929A95E29A95F1F7C99984E081
:1003700092980895CF93DF93E0912C01F0912D0195
:100380000280F381E02DC281D381209731F08C81EE
:100390009D810E946C03FE01F6CFF0932B01E09348
:1003A0002A01A0912C01B0912D011396FC93EE939C
:1003B0001297B583A4831382128281E08C931196E5
:1003C0001C9210821182DF91CF9108951BBA2FEFFA
:1003D0002ABB409620E030E042B34F7042BB62B38C
:1003E000A90174E0440F551F7A95E1F7642B62BBB5
:1003F000FC01283028F4709740814BBBFC0105C0FC
:100400007F9740814BBBFC013F97408145BBE8E2B1
:10041000F2E03197F1F700C000002F5F3F4F0296E6
:1004200020313105C9F60895CF93DF93CDB7DEB7FC
:10043000C254D1090FB6F894DEBF0FBECDBF80E223
:100440008E010F5D1F4FF801982F11929A95E9F7D1
:10045000EAE0F1E0DE01119601900D928A95E1F754
:100460008FE08BBB8FEF84BB80EF81BB81B3876054
:1004700081BB86E090E00E94D40290932D0180938E
:100480002C0186E090E00E94D40290932B0180938F
:100490002A010E944804F0E1EF2EF12CB7010E94DE
:1004A000AC0222968FAF22970E944804B7010E94A7
:1004B000AC0223968FAF2397A0912C01B0912D0110
:1004C00081E08C9311961C92119715961C921E92A6
:1004D0001497E0912A01F0912B011082118213965A
:1004E000FC93EE93129713821282B583A483F12CAE
:1004F000A2E0DA2EF1100BC0BE016F5B7F4F8D2D95
:100500000E946700F82E882381F0D12CF3CFDD20E4
:1005100019F00E94BA01F0CFCE0101960E94E601C7
:1005200080E00E949D01D82EE5CFBE016F5B7F4F1A
:10053000C8010E941A01EEE1EE2EF12C8D2D0E94D1
:100540009D01D82EC8010E94E601E1E0EE1AF108F3
:10055000E114F10499F7D0CF97FB072E16F400941D
:1005600007D077FD09D00E94C00207FC05D03EF4F9
:10057000909581959F4F0895709561957F4F08954F
:10058000AA1BBB1B51E107C0AA1FBB1FA617B707B9
:1005900010F0A61BB70B881F991F5A95A9F78095D5
:1005A0009095BC01CD010895CF93DF9382309105E2
:1005B00010F482E090E0E0913001F091310120E010
:1005C00030E0A0E0B0E0309739F140815181481728
:1005D0005907B8F04817590771F482819381109731
:1005E00029F013969C938E9312972CC0909331010F
:1005F0008093300127C02115310531F04217530790
:1006000018F0A901DB0101C0EF019A01BD01DF0172
:100610000280F381E02DD7CF21153105F9F0281B99
:10062000390B2430310580F48A819B816115710575
:1006300021F0FB019383828304C090933101809366
:100640003001FE01329644C0FE01E20FF31F819398
:10065000919322503109398328833AC020912E0189
:1006600030912F01232B41F420910201309103019D
:1006700030932F0120932E01209100013091010130
:100680002115310541F42DB73EB740910401509139
:100690000501241B350BE0912E01F0912F01E2178B
:1006A000F307A0F42E1B3F0B2817390778F0AC0195
:1006B0004E5F5F4F2417350748F04E0F5F1F509372
:1006C0002F0140932E018193919302C0E0E0F0E06E
:1006D000CF01DF91CF910895CF93DF93009709F475
:1006E00087C0FC01329713821282C0913001D091F1
:1006F0003101209781F420813181280F391F8091A9
:100700002E0190912F018217930779F5F0932F0115
:10071000E0932E016DC0DE0120E030E0AE17BF0790
:1007200050F412964D915C9113979D01411551051E
:1007300009F1DA01F3CFB383A28340815181840FA1
:10074000951F8A179B0771F48D919C911197840FC7
:10075000951F02969183808312968D919C91139799
:10076000938382832115310529F4F0933101E093BD
:1007700030013EC0D9011396FC93EE9312974D9130
:100780005D91A40FB51FEA17FB0779F48081918171
:10079000840F951F0296D90111969C938E938281A6
:1007A000938113969C938E931297E0E0F0E08A81F8
:1007B0009B81009719F0FE01EC01F9CFCE01029662
:1007C00028813981820F931F20912E0130912F01B2
:1007D0002817390769F4309729F4109231011092E3
:1007E000300102C013821282D0932F01C0932E01D8
:1007F000DF91CF9108958F929F92AF92BF92CF9247
:10080000DF92EF92FF92CF93DF93EC0168817981C1
:100810008A819B81611571058105910521F464E24E
:1008200079ED8BE597E02DE133EF41E050E00E9458
:100830006A0449015A019B01AC01A7EAB1E40E9494
:1008400057046B017C01ACEEB4EFA50194010E944A
:100850006504C60ED71EE81EF91EF7FE06C081E02D
:10086000C81AD108E10880E8F80AC882D982EA8269
:10087000FB82C6019F77DF91CF91FF90EF90DF90D1
:10088000CF90BF90AF909F908F9008950C94FB03F2
:1008900086E091E00C94FB03A0E0B0E080930601B9
:1008A00090930701A0930801B093090108950E9455
:1008B0008904A59F900DB49F900DA49F800D911D5C
:1008C00011240895B7FF0C9457040E945704821B0B
:1008D000930B0895052E97FB1EF400940E9481044B
:1008E00057FD07D00E94980407FC03D04EF40C94E7
:1008F000810450954095309521953F4F4F4F5F4F64
:10090000089590958095709561957F4F8F4F9F4F7B
:100910000895A29FB001B39FC001A39F700D811DD8
:100920001124911DB29F700D811D1124911D0895F8
:10093000A1E21A2EAA1BBB1BFD010DC0AA1FBB1FE3
:10094000EE1FFF1FA217B307E407F50720F0A21B55
:10095000B30BE40BF50B661F771F881F991F1A94C2
:1009600069F760957095809590959B01AC01BD01EC
:08097000CF010895F894FFCFB8
:10097800000032012000010000000000000000001B
:10098800C0C0DCC022214512710C710C4512222115
:0A099800DCC0C0C000000000000039
:00000001FF
